:020000040000FA
:100000000000640003022900050A1B093A001C09CC
:100010003B007500760077006400000B440A730A09
:10002000CA0A3A0AC80BA50A270A300A4E0A1E0A4B
:0A003000FA0B5F0A880A32089508EF
:10003C002A0061000A023F0001029F0143060008EA
:10004C00200A470C020046040B0C06006704C70488
:10005C00E7040008400003043B033A030307390A92
:10006C00A10CBB01BA0100081A02030E3F00010CDF
:10007C00DF012400F709400D020000082D00ED06F9
:10008C006D020D022B00CB012C000C022A00000883
:10009C00E307530A6A00AA0200088906580A020CF0
:1000AC002A00000869075C0A6A000008030C2A0091
:1000BC000008660600083C0C1A09060C980003069A
:1000CC006A0A020CD8016F0A030C98014307710AE3
:1000DC00070C38005F0A78005F0AC705470407055C
:1000EC0027052706770A150C88000307810A140CCC
:1000FC001A09140C840A0A0C1A090A0C1A090704A6
:10010C00C70400082A0046050A02360016024306F8
:10011C00970A6100E106940A0400900A010CB600EB
:10012C008C0A46040A0236001602430600086100D7
:10013C00E106A20A04009E0A010CB6009A0A6E009F
:10014C006F000A07B30A0D023D000C023C001C02B2
:10015C00EE010306AF021D02EF01010C3C0003048B
:10016C006C036D03FC02B50A010C3C0003042B0369
:10017C002A03FC02BC0A0A020B014307A70A0F025E
:10018C002B000E022A0000084705E7050705270586
:10019C002706CE0A9B0C88000306D70A050C1A0901
:1001AC00F30A7500B502C90C88000307DF0A020CBC
:1001BC003500DC0C88000307E50A040C3500E60C5E
:1001CC0088000307EB0A060C350015024306F30AF8
:1001DC000A0C1A09010CB500EB0A0704E705000824
:1001EC007C000402A4021F0EE201000803080408AC
:1001FC0005080308080C980003067800160217017E
:10020C0043060C0B17023B0016023A001409330B81
:10021C003C0C350015024306170B1809010CB500F0
:10022C00100B06061F0B0F09010C3F001F02F801F3
:10023C00200B100919094A0B06023F0019029F01F5
:10024C00390079072D0B06061F0B0F09200B190718
:10025C00310B0F094A0B10094A0B16090A023C0014
:10026C007D001D02000F43063C0B4A0B1C02000FC5
:10027C0043060E0B010F4306220B030F43064A0BDA
:10028C00010F43060E0B4A0B1A074F0B4F0C350090
:10029C00C00B1109FF0C350015024306B70B040007
:1002AC0015097A0B470C0200180918091A02070ED7
:1002BC004306620B4604960B4605960B1502120973
:1002CC001002360046051602170946045602170995
:1002DC00960B15020E090A0236004605160217097E
:1002EC00460456021709960B18023C007D001D02AD
:1002FC00000F4306820B4C0B1C02000F4306580BDD
:10030C00010F4306580B030F4306640B010F430602
:10031C00640B070F43066F0B010F43066F0B4C0B5F
:10032C006606A10B470C020006069E0B0F099F0BDD
:10033C0010091909110906071806AD0B470C020024
:10034C000F09010C3F001F02F80175001109060688
:10035C001807B20B010CB800010CB50015024307CD
:10036C00550B1B0237001A0236001602030E4C0DF9
:10037C003500460406023900040061001502020033
:10038C000300010A3300F306730213023100D1019A
:10039C003400F4067402010C3C007D001402DC01F4
:1003AC002A001D0203069D022B0014023C007D0056
:1003BC001C022C001D022D0013090A023C000B022A
:1003CC003D001D02320012023100D1013200130235
:1003DC003F00010C310003047F03F102F10BFF0617
:1003EC0072021202300000086100E10600080400ED
:0203FC00FB0BF9
:021FFE00EE0FE4
:00000001FF
